:020000040800F2
:100000000050002029020008B3020008B9020008CD
:10001000BF020008C5020008CB0200080000000073
:10002000000000000000000000000000D1020008F5
:10003000D702000800000000DD020008E30200080B
:10004000EF020008FB020008070300081303000882
:100050001F0300082B0300083703000843030008B0
:100060004F0300085B0300086703000873030008E0
:100070007F0300088B03000897030008A303000810
:10008000AF030008BB030008C7030008D303000840
:10009000DF030008EB030008F7030008030400086F
:1000A0000F0400081B04000827040008330400089C
:1000B0003F0400084B0400085704000863040008CC
:1000C0006F0400087B0400088704000893040008FC
:1000D0009F040008AB040008B7040008C30400082C
:1000E000CF040008DB040008E7040008F30400085C
:1000F000FF0400080B050008170500082305000889
:100100002F0500083B0500084705000853050008B7
:100110005F0500086B0500087705000883050008E7
:100120008F0500089B050008A7050008B305000817
:10013000BF050008CB050008D7050008E305000847
:10014000EF050008FB050008070600081306000875
:100150001F0600082B0600083706000843060008A3
:100160004F0600085B0600086706000873060008D3
:100170007F0600088B06000897060008A306000803
:10018000AF060008BB06000880B500AF154B9B69A1
:10019000144A43F010039361134B5B68124A23F433
:1001A00070035360104B5B680F4A43F44013536075
:1001B0000D4BDB680C4A43F40053D3600A4BDB68F9
:1001C000094A43F40053D360012000F00FF8064BB6
:1001D000DB68054A23F40053D360012000F006F8E1
:1001E000ECE700BF001002400010014080B485B071
:1001F00000AF78600CE00023FB6002E0FB68013395
:10020000FB60FB68074A9342F8DD7B68013B7B603B
:100210007B68002BEFDC00BF00BF1437BD4680BCFD
:10022000704700BF9F86010080B586B000AF1A4AB4
:100230001A4BD31A7B60194B7B61194B3B6100232E
:10024000FB600AE03A69531C3B617B69591C796188
:1002500012781A70FB680133FB60FA687B689A4277
:10026000F0D3104A104BD31A7B600F4B7B610023F5
:10027000BB6007E07B695A1C7A6100221A70BB6878
:100280000133BB60BA687B689A42F3D3FFF77CFF07
:1002900000BF1837BD4680BD0000002000000020D0
:1002A000C8060008000000200000002080B400AF55
:1002B000FEE780B400AFFEE780B400AFFEE780B495
:1002C00000AFFEE780B400AFFEE780B400AFFEE70A
:1002D00080B400AFFEE780B400AFFEE780B400AFAB
:1002E000FEE780B400AF00BFBD4680BC704780B45D
:1002F00000AF00BFBD4680BC704780B400AF00BFF8
:10030000BD4680BC704780B400AF00BFBD4680BC16
:10031000704780B400AF00BFBD4680BC704780B45A
:1003200000AF00BFBD4680BC704780B400AF00BFC7
:10033000BD4680BC704780B400AF00BFBD4680BCE6
:10034000704780B400AF00BFBD4680BC704780B42A
:1003500000AF00BFBD4680BC704780B400AF00BF97
:10036000BD4680BC704780B400AF00BFBD4680BCB6
:10037000704780B400AF00BFBD4680BC704780B4FA
:1003800000AF00BFBD4680BC704780B400AF00BF67
:10039000BD4680BC704780B400AF00BFBD4680BC86
:1003A000704780B400AF00BFBD4680BC704780B4CA
:1003B00000AF00BFBD4680BC704780B400AF00BF37
:1003C000BD4680BC704780B400AF00BFBD4680BC56
:1003D000704780B400AF00BFBD4680BC704780B49A
:1003E00000AF00BFBD4680BC704780B400AF00BF07
:1003F000BD4680BC704780B400AF00BFBD4680BC26
:10040000704780B400AF00BFBD4680BC704780B469
:1004100000AF00BFBD4680BC704780B400AF00BFD6
:10042000BD4680BC704780B400AF00BFBD4680BCF5
:10043000704780B400AF00BFBD4680BC704780B439
:1004400000AF00BFBD4680BC704780B400AF00BFA6
:10045000BD4680BC704780B400AF00BFBD4680BCC5
:10046000704780B400AF00BFBD4680BC704780B409
:1004700000AF00BFBD4680BC704780B400AF00BF76
:10048000BD4680BC704780B400AF00BFBD4680BC95
:10049000704780B400AF00BFBD4680BC704780B4D9
:1004A00000AF00BFBD4680BC704780B400AF00BF46
:1004B000BD4680BC704780B400AF00BFBD4680BC65
:1004C000704780B400AF00BFBD4680BC704780B4A9
:1004D00000AF00BFBD4680BC704780B400AF00BF16
:1004E000BD4680BC704780B400AF00BFBD4680BC35
:1004F000704780B400AF00BFBD4680BC704780B479
:1005000000AF00BFBD4680BC704780B400AF00BFE5
:10051000BD4680BC704780B400AF00BFBD4680BC04
:10052000704780B400AF00BFBD4680BC704780B448
:1005300000AF00BFBD4680BC704780B400AF00BFB5
:10054000BD4680BC704780B400AF00BFBD4680BCD4
:10055000704780B400AF00BFBD4680BC704780B418
:1005600000AF00BFBD4680BC704780B400AF00BF85
:10057000BD4680BC704780B400AF00BFBD4680BCA4
:10058000704780B400AF00BFBD4680BC704780B4E8
:1005900000AF00BFBD4680BC704780B400AF00BF55
:1005A000BD4680BC704780B400AF00BFBD4680BC74
:1005B000704780B400AF00BFBD4680BC704780B4B8
:1005C00000AF00BFBD4680BC704780B400AF00BF25
:1005D000BD4680BC704780B400AF00BFBD4680BC44
:1005E000704780B400AF00BFBD4680BC704780B488
:1005F00000AF00BFBD4680BC704780B400AF00BFF5
:10060000BD4680BC704780B400AF00BFBD4680BC13
:10061000704780B400AF00BFBD4680BC704780B457
:1006200000AF00BFBD4680BC704780B400AF00BFC4
:10063000BD4680BC704780B400AF00BFBD4680BCE3
:10064000704780B400AF00BFBD4680BC704780B427
:1006500000AF00BFBD4680BC704780B400AF00BF94
:10066000BD4680BC704780B400AF00BFBD4680BCB3
:10067000704780B400AF00BFBD4680BC704780B4F7
:1006800000AF00BFBD4680BC704780B400AF00BF64
:10069000BD4680BC704780B400AF00BFBD4680BC83
:1006A000704780B400AF00BFBD4680BC704780B4C7
:1006B00000AF00BFBD4680BC704780B400AF00BF34
:0806C000BD4680BC704700BF7D
:0400000508000229C4
:00000001FF
